{
  "_format": "hh-sol-artifact-1",
  "contractName": "CrowdFunding",
  "sourceName": "contracts/CrowdFunding.sol",
  "abi": [
    {
      "inputs": [
        {
          "internalType": "uint256",
          "name": "",
          "type": "uint256"
        }
      ],
      "name": "campaigns",
      "outputs": [
        {
          "internalType": "address",
          "name": "owner",
          "type": "address"
        },
        {
          "internalType": "string",
          "name": "title",
          "type": "string"
        },
        {
          "internalType": "string",
          "name": "description",
          "type": "string"
        },
        {
          "internalType": "uint256",
          "name": "target",
          "type": "uint256"
        },
        {
          "internalType": "uint256",
          "name": "deadline",
          "type": "uint256"
        },
        {
          "internalType": "uint256",
          "name": "amountCollected",
          "type": "uint256"
        }
      ],
      "stateMutability": "view",
      "type": "function"
    },
    {
      "inputs": [
        {
          "internalType": "address",
          "name": "_owner",
          "type": "address"
        },
        {
          "internalType": "string",
          "name": "_title",
          "type": "string"
        },
        {
          "internalType": "string",
          "name": "_description",
          "type": "string"
        },
        {
          "internalType": "uint256",
          "name": "_target",
          "type": "uint256"
        },
        {
          "internalType": "uint256",
          "name": "_deadline",
          "type": "uint256"
        }
      ],
      "name": "createCampaign",
      "outputs": [
        {
          "internalType": "uint256",
          "name": "",
          "type": "uint256"
        }
      ],
      "stateMutability": "nonpayable",
      "type": "function"
    },
    {
      "inputs": [
        {
          "internalType": "uint256",
          "name": "_id",
          "type": "uint256"
        }
      ],
      "name": "donateToCampaign",
      "outputs": [],
      "stateMutability": "payable",
      "type": "function"
    },
    {
      "inputs": [
        {
          "internalType": "uint256",
          "name": "_id",
          "type": "uint256"
        }
      ],
      "name": "getDonators",
      "outputs": [
        {
          "internalType": "address[]",
          "name": "",
          "type": "address[]"
        },
        {
          "internalType": "uint256[]",
          "name": "",
          "type": "uint256[]"
        }
      ],
      "stateMutability": "view",
      "type": "function"
    },
    {
      "inputs": [],
      "name": "getNumberOfCampaigns",
      "outputs": [
        {
          "components": [
            {
              "internalType": "address",
              "name": "owner",
              "type": "address"
            },
            {
              "internalType": "string",
              "name": "title",
              "type": "string"
            },
            {
              "internalType": "string",
              "name": "description",
              "type": "string"
            },
            {
              "internalType": "uint256",
              "name": "target",
              "type": "uint256"
            },
            {
              "internalType": "uint256",
              "name": "deadline",
              "type": "uint256"
            },
            {
              "internalType": "uint256",
              "name": "amountCollected",
              "type": "uint256"
            },
            {
              "internalType": "address[]",
              "name": "donators",
              "type": "address[]"
            },
            {
              "internalType": "uint256[]",
              "name": "donations",
              "type": "uint256[]"
            }
          ],
          "internalType": "struct CrowdFunding.Campaign[]",
          "name": "",
          "type": "tuple[]"
        }
      ],
      "stateMutability": "view",
      "type": "function"
    },
    {
      "inputs": [],
      "name": "numberOfCampaigns",
      "outputs": [
        {
          "internalType": "uint256",
          "name": "",
          "type": "uint256"
        }
      ],
      "stateMutability": "view",
      "type": "function"
    }
  ],
  "bytecode": "0x6080604052600060015534801561001557600080fd5b50611794806100256000396000f3fe6080604052600436106100555760003560e01c8063075843c31461005a57806307ca140d146100975780630fa91fa9146100c2578063141961bc1461010057806342a4fda814610142578063e4aafc2c1461015e575b600080fd5b34801561006657600080fd5b50610081600480360381019061007c9190610c0f565b610189565b60405161008e9190610cd1565b60405180910390f35b3480156100a357600080fd5b506100ac61029d565b6040516100b99190610cd1565b60405180910390f35b3480156100ce57600080fd5b506100e960048036038101906100e49190610cec565b6102a3565b6040516100f7929190610e95565b60405180910390f35b34801561010c57600080fd5b5061012760048036038101906101229190610cec565b6103b3565b60405161013996959493929190610f5a565b60405180910390f35b61015c60048036038101906101579190610cec565b61051f565b005b34801561016a57600080fd5b50610173610682565b6040516101809190611278565b60405180910390f35b60008060008060015481526020019081526020016000209050428160040154106101e8576040517f08c379a00000000000000000000000000000000000000000000000000000000081526004016101df9061130c565b60405180910390fd5b868160000160006101000a81548173ffffffffffffffffffffffffffffffffffffffff021916908373ffffffffffffffffffffffffffffffffffffffff1602179055508581600101908161023c9190611538565b508481600201908161024e9190611538565b50838160030181905550828160040181905550600081600501819055506001600081548092919061027e90611639565b9190505550600180546102919190611681565b91505095945050505050565b60015481565b6060806000808481526020019081526020016000206006016000808581526020019081526020016000206007018180548060200260200160405190810160405280929190818152602001828054801561035157602002820191906000526020600020905b8160009054906101000a900473ffffffffffffffffffffffffffffffffffffffff1673ffffffffffffffffffffffffffffffffffffffff1681526020019060010190808311610307575b50505050509150808054806020026020016040519081016040528092919081815260200182805480156103a357602002820191906000526020600020905b81548152602001906001019080831161038f575b5050505050905091509150915091565b60006020528060005260406000206000915090508060000160009054906101000a900473ffffffffffffffffffffffffffffffffffffffff16908060010180546103fc9061135b565b80601f01602080910402602001604051908101604052809291908181526020018280546104289061135b565b80156104755780601f1061044a57610100808354040283529160200191610475565b820191906000526020600020905b81548152906001019060200180831161045857829003601f168201915b50505050509080600201805461048a9061135b565b80601f01602080910402602001604051908101604052809291908181526020018280546104b69061135b565b80156105035780601f106104d857610100808354040283529160200191610503565b820191906000526020600020905b8154815290600101906020018083116104e657829003601f168201915b5050505050908060030154908060040154908060050154905086565b60003490506000806000848152602001908152602001600020905080600601339080600181540180825580915050600190039060005260206000200160009091909190916101000a81548173ffffffffffffffffffffffffffffffffffffffff021916908373ffffffffffffffffffffffffffffffffffffffff1602179055508060070182908060018154018082558091505060019003906000526020600020016000909190919091505560008160000160009054906101000a900473ffffffffffffffffffffffffffffffffffffffff1673ffffffffffffffffffffffffffffffffffffffff1683604051610614906116e6565b60006040518083038185875af1925050503d8060008114610651576040519150601f19603f3d011682016040523d82523d6000602084013e610656565b606091505b50509050801561067c578282600501600082825461067491906116fb565b925050819055505b50505050565b6060600060015467ffffffffffffffff8111156106a2576106a1610aae565b5b6040519080825280602002602001820160405280156106db57816020015b6106c86109c6565b8152602001906001900390816106c05790505b50905060005b6001548110156109be576000806000838152602001908152602001600020905080604051806101000160405290816000820160009054906101000a900473ffffffffffffffffffffffffffffffffffffffff1673ffffffffffffffffffffffffffffffffffffffff1673ffffffffffffffffffffffffffffffffffffffff1681526020016001820180546107749061135b565b80601f01602080910402602001604051908101604052809291908181526020018280546107a09061135b565b80156107ed5780601f106107c2576101008083540402835291602001916107ed565b820191906000526020600020905b8154815290600101906020018083116107d057829003601f168201915b505050505081526020016002820180546108069061135b565b80601f01602080910402602001604051908101604052809291908181526020018280546108329061135b565b801561087f5780601f106108545761010080835404028352916020019161087f565b820191906000526020600020905b81548152906001019060200180831161086257829003601f168201915b505050505081526020016003820154815260200160048201548152602001600582015481526020016006820180548060200260200160405190810160405280929190818152602001828054801561092b57602002820191906000526020600020905b8160009054906101000a900473ffffffffffffffffffffffffffffffffffffffff1673ffffffffffffffffffffffffffffffffffffffff16815260200190600101908083116108e1575b505050505081526020016007820180548060200260200160405190810160405280929190818152602001828054801561098357602002820191906000526020600020905b81548152602001906001019080831161096f575b50505050508152505083838151811061099f5761099e61172f565b5b60200260200101819052505080806109b690611639565b9150506106e1565b508091505090565b604051806101000160405280600073ffffffffffffffffffffffffffffffffffffffff168152602001606081526020016060815260200160008152602001600081526020016000815260200160608152602001606081525090565b6000604051905090565b600080fd5b600080fd5b600073ffffffffffffffffffffffffffffffffffffffff82169050919050565b6000610a6082610a35565b9050919050565b610a7081610a55565b8114610a7b57600080fd5b50565b600081359050610a8d81610a67565b92915050565b600080fd5b600080fd5b6000601f19601f8301169050919050565b7f4e487b7100000000000000000000000000000000000000000000000000000000600052604160045260246000fd5b610ae682610a9d565b810181811067ffffffffffffffff82111715610b0557610b04610aae565b5b80604052505050565b6000610b18610a21565b9050610b248282610add565b919050565b600067ffffffffffffffff821115610b4457610b43610aae565b5b610b4d82610a9d565b9050602081019050919050565b82818337600083830152505050565b6000610b7c610b7784610b29565b610b0e565b905082815260208101848484011115610b9857610b97610a98565b5b610ba3848285610b5a565b509392505050565b600082601f830112610bc057610bbf610a93565b5b8135610bd0848260208601610b69565b91505092915050565b6000819050919050565b610bec81610bd9565b8114610bf757600080fd5b50565b600081359050610c0981610be3565b92915050565b600080600080600060a08688031215610c2b57610c2a610a2b565b5b6000610c3988828901610a7e565b955050602086013567ffffffffffffffff811115610c5a57610c59610a30565b5b610c6688828901610bab565b945050604086013567ffffffffffffffff811115610c8757610c86610a30565b5b610c9388828901610bab565b9350506060610ca488828901610bfa565b9250506080610cb588828901610bfa565b9150509295509295909350565b610ccb81610bd9565b82525050565b6000602082019050610ce66000830184610cc2565b92915050565b600060208284031215610d0257610d01610a2b565b5b6000610d1084828501610bfa565b91505092915050565b600081519050919050565b600082825260208201905092915050565b6000819050602082019050919050565b610d4e81610a55565b82525050565b6000610d608383610d45565b60208301905092915050565b6000602082019050919050565b6000610d8482610d19565b610d8e8185610d24565b9350610d9983610d35565b8060005b83811015610dca578151610db18882610d54565b9750610dbc83610d6c565b925050600181019050610d9d565b5085935050505092915050565b600081519050919050565b600082825260208201905092915050565b6000819050602082019050919050565b610e0c81610bd9565b82525050565b6000610e1e8383610e03565b60208301905092915050565b6000602082019050919050565b6000610e4282610dd7565b610e4c8185610de2565b9350610e5783610df3565b8060005b83811015610e88578151610e6f8882610e12565b9750610e7a83610e2a565b925050600181019050610e5b565b5085935050505092915050565b60006040820190508181036000830152610eaf8185610d79565b90508181036020830152610ec38184610e37565b90509392505050565b610ed581610a55565b82525050565b600081519050919050565b600082825260208201905092915050565b60005b83811015610f15578082015181840152602081019050610efa565b60008484015250505050565b6000610f2c82610edb565b610f368185610ee6565b9350610f46818560208601610ef7565b610f4f81610a9d565b840191505092915050565b600060c082019050610f6f6000830189610ecc565b8181036020830152610f818188610f21565b90508181036040830152610f958187610f21565b9050610fa46060830186610cc2565b610fb16080830185610cc2565b610fbe60a0830184610cc2565b979650505050505050565b600081519050919050565b600082825260208201905092915050565b6000819050602082019050919050565b600082825260208201905092915050565b600061101182610edb565b61101b8185610ff5565b935061102b818560208601610ef7565b61103481610a9d565b840191505092915050565b600082825260208201905092915050565b600061105b82610d19565b611065818561103f565b935061107083610d35565b8060005b838110156110a15781516110888882610d54565b975061109383610d6c565b925050600181019050611074565b5085935050505092915050565b600082825260208201905092915050565b60006110ca82610dd7565b6110d481856110ae565b93506110df83610df3565b8060005b838110156111105781516110f78882610e12565b975061110283610e2a565b9250506001810190506110e3565b5085935050505092915050565b6000610100830160008301516111366000860182610d45565b506020830151848203602086015261114e8282611006565b915050604083015184820360408601526111688282611006565b915050606083015161117d6060860182610e03565b5060808301516111906080860182610e03565b5060a08301516111a360a0860182610e03565b5060c083015184820360c08601526111bb8282611050565b91505060e083015184820360e08601526111d582826110bf565b9150508091505092915050565b60006111ee838361111d565b905092915050565b6000602082019050919050565b600061120e82610fc9565b6112188185610fd4565b93508360208202850161122a85610fe5565b8060005b85811015611266578484038952815161124785826111e2565b9450611252836111f6565b925060208a0199505060018101905061122e565b50829750879550505050505092915050565b600060208201905081810360008301526112928184611203565b905092915050565b7f54686520646561646c696e652073686f756c642062652061206461746520696e60008201527f2066757475726500000000000000000000000000000000000000000000000000602082015250565b60006112f6602783610ee6565b91506113018261129a565b604082019050919050565b60006020820190508181036000830152611325816112e9565b9050919050565b7f4e487b7100000000000000000000000000000000000000000000000000000000600052602260045260246000fd5b6000600282049050600182168061137357607f821691505b6020821081036113865761138561132c565b5b50919050565b60008190508160005260206000209050919050565b60006020601f8301049050919050565b600082821b905092915050565b6000600883026113ee7fffffffffffffffffffffffffffffffffffffffffffffffffffffffffffffffff826113b1565b6113f886836113b1565b95508019841693508086168417925050509392505050565b6000819050919050565b600061143561143061142b84610bd9565b611410565b610bd9565b9050919050565b6000819050919050565b61144f8361141a565b61146361145b8261143c565b8484546113be565b825550505050565b600090565b61147861146b565b611483818484611446565b505050565b5b818110156114a75761149c600082611470565b600181019050611489565b5050565b601f8211156114ec576114bd8161138c565b6114c6846113a1565b810160208510156114d5578190505b6114e96114e1856113a1565b830182611488565b50505b505050565b600082821c905092915050565b600061150f600019846008026114f1565b1980831691505092915050565b600061152883836114fe565b9150826002028217905092915050565b61154182610edb565b67ffffffffffffffff81111561155a57611559610aae565b5b611564825461135b565b61156f8282856114ab565b600060209050601f8311600181146115a25760008415611590578287015190505b61159a858261151c565b865550611602565b601f1984166115b08661138c565b60005b828110156115d8578489015182556001820191506020850194506020810190506115b3565b868310156115f557848901516115f1601f8916826114fe565b8355505b6001600288020188555050505b505050505050565b7f4e487b7100000000000000000000000000000000000000000000000000000000600052601160045260246000fd5b600061164482610bd9565b91507fffffffffffffffffffffffffffffffffffffffffffffffffffffffffffffffff82036116765761167561160a565b5b600182019050919050565b600061168c82610bd9565b915061169783610bd9565b92508282039050818111156116af576116ae61160a565b5b92915050565b600081905092915050565b50565b60006116d06000836116b5565b91506116db826116c0565b600082019050919050565b60006116f1826116c3565b9150819050919050565b600061170682610bd9565b915061171183610bd9565b92508282019050808211156117295761172861160a565b5b92915050565b7f4e487b7100000000000000000000000000000000000000000000000000000000600052603260045260246000fdfea2646970667358221220b297c028c37cba0f2869094c9463b79dd105dec87c45d7361f9160137a24afe264736f6c63430008120033",
  "linkReferences": {},
  "deployedLinkReferences": {}
}